:10000000EAC00000FAC00000F8C00000F6C000001E
:10001000F4C00000F2C00000F0C00000EEC000001C
:10002000ECC00000EAC00000E8C00000E6C000002C
:10003000E4C00000E2C00000E0C00000DEC000003C
:10004000DCC00000DAC00000D8C00000D6C000004C
:10005000F4C00000D2C00000D0C00000CEC000003C
:10006000CCC00000CAC00000C8C00000C6C000006C
:10007000C4C00000C2C00000C0C00000BEC000007C
:10008000BCC00000BAC00000B8C00000B6C000008C
:10009000B4C00000B2C00000B0C00000AEC000009C
:1000A000ACC00000AAC00000A8C00000A6C00000AC
:1000B000A4C00000A2C00000A0C000009EC00000BC
:1000C0009CC000009AC0000098C0000096C00000CC
:1000D00094C0000092C0000090C000008EC00000DC
:1000E0008CC00000000102030405060708090A0B82
:1000F0000C0D0E1F101112131415161718191A1BB8
:100100001C1D1F1F202122232425262728292A2BB6
:100110002C2D2E2F303132333435363738393A3BA7
:100120003C3D3E3F404142434445464748494A4B97
:100130004C4D4E4F505152535455565758595A5B87
:100140005C5D5E5F606162636465666768696A6B77
:100150006C6D6E6F707172737475767778797A7B67
:100160007C7D7E7F808182838485868788898A8B57
:100170008C8D8E8F909192939495969798999A9B47
:100180009C9D9E9FA0A1A2A3A4A5A6A7A8A9AAAB37
:10019000ACADAEAFB0B1B2B3B4B5B6B7B8B9BABB27
:1001A000BCBDBEBFC0C1C2C3C4C5C6C7C8C9CACB17
:1001B000CCCDCECFE0E1E2E3E4E5E6E7E8E9EAEB47
:1001C000ECEDEEEFFFFEFDFCFBFAF9F8F7F6F5F4C7
:1001D000F3F2F1F0000011241FBECFEFD1E2DEBF39
:1001E000CDBF00E00CBF22E0A0E0B2E001C01D9254
:1001F000A536B207E1F752D03AC102CFCF93DF93D1
:10020000CDB7DEB78FE690E021E0FC01208381E8E6
:1002100090E021E830E0F90120812360FC01208397
:1002200084E890E02BED3BE0FC01318320831092C9
:1002300064020000DF91CF9108951F920F92009009
:100240005F000F92112400905B000F922F933F9359
:100250008F939F93EF93FF93CF93DF93CDB7DEB749
:10026000809164028F5F8093640284E890E02BEDBC
:100270003BE0FC01318320830000DF91CF91FF91AF
:10028000EF919F918F913F912F910F9000925B0082
:100290000F9000925F000F901F901895CF93DF93FF
:1002A000CDB7DEB765970FB6F894DEBF0FBECDBFF2
:1002B00081E290E0FC01108282E290E02FEFFC01ED
:1002C000208384E290E024E230E0F9012081206E76
:1002D000FC01208385E290E025E230E0F9012081F5
:1002E000206EFC01208387E290E02FEFFC01208349
:1002F00088E290E02FEFFC0120838AE091E02FEF6D
:10030000FC0120838BE091E0FC01108280E290E010
:10031000FC0180818F3F09F472C085E290E025E204
:1003200030E0F90120812F7BFC0120831A821982A1
:100330005EC089819A818C519F4F092E000CAA0BB7
:10034000BB0B8B839C83AD83BE838B819C81AD81F2
:10035000BE81ABBFFC0187918F838F818823C9F455
:1003600089819A8101968C519F4F092E000CAA0B0E
:10037000BB0B898B9A8BAB8BBC8B89899A89AB8998
:10038000BC89ABBFFC0187918D8B8D89882309F4D3
:1003900035C084EE90E0A0E0BB2788879987AA87C4
:1003A000BB87288539854A855B8589819A81092E95
:1003B000000CAA0BBB0B820F931FA41FB51F8C87C9
:1003C0009D87AE87BF878C859D85AE85BF85ABBF7A
:1003D000FC018791888B288989819A8180509E4F62
:1003E000FC01208389819A8101969A83898389817E
:1003F0009A81843691050CF49CCF01C0000078945A
:10040000FDDE80916402813079F485E290E025E29E
:1004100030E0F90120812064FC0120838091640296
:100420008F5F80936402EDCF80916402833049F73F
:1004300085E290E025E230E0F90120812F7BFC018C
:10044000208385E290E025E230E0F90120812064FC
:10045000FC0120830000F89480E090E065960FB6E0
:10046000F894DEBF0FBECDBFDF91CF910895F89411
:02047000FFCFBC
:00000001FF
