:020000020000FC
:100000000C947A000C9472000C9472000C947200A0
:100010000C9472000C9472000C9472000C94720098
:100020000C9472000C9472000C9472000C94720088
:100030000C9472000C9472000C9472000C94720078
:100040000C9472000C9472000C9472000C94720068
:100050000C9472000C9479000C9479000C94790043
:100060000C9479000C9479000C9479000C9479002C
:100070000C9479000C9479000C9479000C9479001C
:100080000C9479000C9479000C9479000C9479000C
:100090000C9479000C9479000C9479000C947900FC
:1000A0000C9479000C9479000C9479000C947900EC
:1000B0000C9479000C9479000C9479000C947900DC
:1000C0000C9479000C9479000C9479000C947900CC
:1000D0000C9479000C9479000C9479000C947900BC
:1000E0000C94790053953BE06BED30938500609361
:1000F00084001895F89401E20EBF0FEF0DBF10E0D9
:100100002FEF11B912B9259A269A279A2D9A2E9A6D
:100110002F9A27B928B950E03BE06BED309385006A
:100120006093840063E06093810061E060936F00FE
:100130007894A0E0B2E000E00BBFEAE7F1E000E075
:1001400010B11F3F71F02E98043659F0479140309E
:1001500029F44691403029F0319747914D9303950A
:10016000F2CF513019F0533021F0FBCF2E9A539536
:10017000F8CF2E982E9A00C0FFCF0001020304058D
:10018000060708090A0B0C0D0E1F10111213141587
:10019000161718191A1B1C1D1F1F20212223242586
:1001A000262728292A2B2C2D2E2F30313233343577
:1001B000363738393A3B3C3D3E3F40414243444567
:1001C000464748494A4B4C4D4E4F50515253545557
:1001D000565758595A5B5C5D5E5F60616263646547
:1001E000666768696A6B6C6D6E6F70717273747537
:1001F000767778797A7B7C7D7E7F80818283848527
:10020000868788898A8B8C8D8E8F90919293949516
:10021000969798999A9B9C9D9E9FA0A1A2A3A4A506
:10022000A6A7A8A9AAABACADAEAFB0B1B2B3B4B5F6
:10023000B6B7B8B9BABBBCBDBEBFC0C1C2C3C4C5E6
:10024000C6C7C8C9CACBCCCDCECFE0E1E2E3E4E576
:10025000E6E7E8E9EAEBECEDEEEFFFFEFDFCFBFA8A
:0C026000F9F8F7F6F5F4F3F2F1F0000005
:00000001FF
